:020000040000FA
:1000000088020020F100000017010000D500000068
:1000100000000000000000000000000000000000E0
:100020000000000000000000000000001B010000B4
:1000300000000000000000001D0100001F01000082
:100040002101000021010000210100002101000028
:100050002101000021010000210100002101000018
:1000600021010000E5110000210100002101000034
:100070003D120000210100002101000021010000CB
:1000800021010000210100002101000021010000E8
:1000900021010000210100002101000021010000D8
:1000A00021010000210100002101000021010000C8
:1000B000210100008907000021010000210100004A
:1000C0000348854600F014FB004800470D1A000065
:1000D0008802002004207146084202D0EFF3098014
:1000E00001E0EFF308807146004A1047F10B000071
:1000F0000C480D4901600D4901600D4901600D4A30
:100100000D4911600D4A0E491160002101600D4832
:1001100080470D480047FEE7FEE7FEE7FEE7FEE703
:10012000FEE700000001004059000000160000003A
:100130008800000024000040A55A00008002004012
:1001400001000000CD100000C100000030B50B46DA
:10015000014600202022012409E00D46D5409D42A1
:1001600005D31D469540491B254695404019154627
:10017000521E002DF1DC30BD70B50024254600284C
:1001800001DA01244042002901DA01254942FFF742
:10019000DDFFAC4200D04042002C00D0494270BD8F
:1001A00003460B439B0703D009E008C9121F08C090
:1001B000042AFAD203E00B780370401C491C521E3B
:1001C000F9D27047F0B507460846584087B0C00FCF
:1001D000049048000E46590040084908BC1A88415E
:1001E00005D2384631461E4617460B460246580091
:1001F000400810434CD0300D039040055900400D8D
:10020000490D0590401A0290402872DA1803012126
:10021000000B09050843019004980092002805D0BE
:100220000199524200208841009201900298402199
:100230000A1A0199009800F0C7F905460C466B466A
:1002400007CB00F0E2F9C0197141039A0E0D0023AB
:10025000D71756401A467A40164344D0049A002ACB
:100260002DD0029A012A039A15DC1205C01A914179
:1002700001263605001C7141D20F059ED20700935E
:10028000019202962A46234600F0DFF907B0F0BD3E
:1002900038463146FAE71605224A0F46B218C01A08
:1002A000B74101210905001C4F4100187F4111464B
:1002B00018187941E20F10436D19644113E0E20709
:1002C0006D0815436408C2071443039A01261205FA
:1002D000C01A91413605001C7141CE0740083043D9
:1002E0004908C01851412A46234600F0A1F9CDE73C
:1002F000FFE7049801224000C117121A00238B4126
:1003000004983146C417381AA141EEE730B40124ED
:10031000E407634030BC55E730B40124E407614092
:1003200030BC4FE70000E0FFF0B51FB488B00B9978
:100330000998002448400999C00F490049080991CB
:10034000C0070B990090490049080B91099908983A
:10035000A64608431CD00B990A98084318D0099860
:1003600001244000420D4800410D09982405000376
:10037000000B204309900B980003000B20430B90C7
:1003800050181C494018002201901446104605E000
:10039000002001460DB0F0BD032801DA034600E05D
:1003A00003239C46C11A0AAE0AE05F0008ADED5B6C
:1003B0004F00F75B7D430027AA187C41491C5B1E58
:1003C0006145F2DD410004AB5A522104120C0A438C
:1003D000240C401C0828DFDB01980290009970462D
:1003E00001910090059B049A0799069800F02DF959
:1003F000D0E700000DFCFFFFF0B50C465C4085B077
:10040000E40FE40703944C00002664085900944666
:10041000490802460296224321D062460A431ED072
:100420006200570D4A000E032303550D01240246B6
:100430002C492405781B1B0B360B401823432643FD
:10044000614600901C46501AB44103D30098401CEA
:10045000009002E0921800985B41002803DA002027
:10046000014605B0F0BD002001210905074686467A
:1004700011E064461D46141BB54106D36546521B68
:10048000B341744607430C43A646CD0740084908CC
:10049000284392185B4105460D43EAD110461843A4
:1004A00013D06046194650407140084306D060465C
:1004B000101AB34106D20122002306E000220123D4
:1004C000DB0702E00122D243531000987446010575
:1004D000381C6141029C039D0019694100F0A8F895
:1004E000BFE70000FD0300000EB5054902910021A1
:1004F00000910A460B46019100F0A7F803B000BD39
:10050000330400004A0009030123090B1B051943AA
:10051000094B10B5520D9A4201DA002010BD064B6E
:1005200034339A4203DC9A1A00F05EF810BD034996
:100530005118884010BD0000FF030000CDFBFFFFF5
:1005400010B5002904DB0124E40740428C41214618
:10055000002B04DB1C460123DB075242A3419942D6
:1005600000D1904210BD0000F0B51FB40646002037
:1005700082B005464024019100901BE0019922467B
:100580000F46304600F030F8049A059B801A9941D6
:1005900010D310461946224600F016F8361A8F413D
:1005A0000197224601200021009F00F00DF8381825
:1005B0004D4100902046641E0028DFDC019B00981E
:1005C0002946324607B0F0BD10B5202A04DB0146AB
:1005D000203A9140002010BD914020239C1A0346F0
:1005E000E3401943904010BD10B5202A04DB0846B3
:1005F000203AD040002110BD0B46D340D0402024EB
:10060000A21A91400843194610BD10B5202A06DBF6
:10061000CB170846203A1041C1170B4306E00B46A2
:100620001341D0402024A21A91400843194610BD1E
:1006300010B5002B08DA0024401C614192185B4180
:100640001A4301D14008400010BDF0B51FB482B07C
:1006500005460C0003D0084600F072FF02E000F0EF
:100660006FFF20300246009021462846FFF7ACFF7E
:10067000049B059A04460F4618431143084314D0BF
:10068000184610431BD0009840210A1A18460599B5
:10069000FFF7AAFF05460E46009A05990498FFF752
:1006A00093FF084305D0012004E02046394607B0F7
:1006B000F0BD0020C11705430E432C43374300997A
:1006C0000E986305401A7905E40A00220C43FD0ADE
:1006D0000A3002D500200146E9E7010510196941F9
:1006E0000C9C0D9D00196941FFF7A2FFDFE7000098
:1006F000064C0125064E05E0E36807CC2B430C3C75
:1007000098471034B442F7D3FFF7DEFC0C1C00000E
:100710002C1C0000CB0702228030002B02D0036883
:10072000934303608B0702D5836893438360490733
:1007300002D5C1689143C160704710B5FF23FF2403
:10074000F13301348030002905D002689A430A430E
:100750002243026010BD01689943114321430160A7
:1007600010BDCB0702228030002B02D00368134358
:1007700003608B0702D5836813438360490702D562
:10078000C1681143C160704730B5154B98680221AC
:1007900008439860598813488A00101800681C465E
:1007A000143480B2251D9880002907D1208021882B
:1007B000288800F031FAD8802880208058880428C2
:1007C00008D1988860806188688800F025FAD88010
:1007D00068806080034901208031086130BD0000DD
:1007E0001000002000300440F8B5144C21680125A9
:1007F000294321602B468340104F0022803F1E4634
:100800001146384600F01CF800221146384600F028
:10081000BBF8002230213846FFF78FFF6068666022
:10082000256101213846FFF79CFF1D2000F006FAE4
:100830002068E11408432060F8BD000080300440C7
:1008400070B50446FF34813465688030ED07002DB3
:1008500015D1056801263603354305600568ED04AA
:10086000FCD46568012635436560256835432560FD
:100870000568F602354305606568ED07FCD004683D
:10088000034D2C400C43144304604168436070BD29
:10089000F3FBFFFFF8B5304C2068012630432060A1
:1008A0002E4801682E4841432E4841610022826152
:1008B000052101610169C903FCD50261264F0123AD
:1008C0000022803F5B0711463846FFF7B9FF4722F9
:1008D0000021384600F058F82661234DA86802210F
:1008E0008843A86001213846FFF73BFF1D2000F038
:1008F000A5F92068F91408432060A8688007FCD592
:1009000001213846FFF706FF13484038406B84B298
:1009100000F074FB00F040F914480421C16070211C
:10092000416006610169C907FCD18068214606055E
:100930000320360D80027043FFF71EFC286102463B
:1009400023460B490BA0009600F0EAFD01200D495B
:1009500040070860F8BD000080300440040000201B
:100960001027000000E000E01000002000C0004060
:10097000B71B00002573203A2025642C25642C2504
:10098000640D0A0080E100E08030016A090A090272
:1009900011430162704700000EB509490EC900916C
:1009A0000192810F8A00029369468A5805495118BD
:1009B0004A68C306DB0E0120984002434A600EBD20
:1009C000281B00000002004002490A6802430A6036
:1009D000704700000002004010B500F02DFB0148F8
:1009E000006810BD0000002002480068C00700D069
:1009F00001487047000200400048E80104480068D0
:100A0000800702D50120C003704700207047000016
:100A10000002004010B500F00FFB0448406B410796
:100A20000348490F0068C84010BD000000020040A4
:100A30000000002010B500F0FFFA0448406B4006AB
:100A4000410F03480068C84010BD0000000200408C
:100A50000000002008B511A0006811490090096845
:100A6000002005221204114216D1080301D50D48B9
:100A700000E00D488A030FD40A04920F6B469B5C7A
:100A8000CA058904D20DC90E891C8008921C5943DD
:100A90005043FFF75BFB800008BD00000102020429
:100AA00040020040001BB7000048E801F3B51248BF
:100AB00081B005690F4610200F4C0540403C20686E
:100AC000042630432060102000F050F820690721F0
:100AD00008432061206A0009000138432062206930
:100AE000884301990843206100F0A6FA002D02D145
:100AF0002068B0432060FEBD40020040F0B5194BB5
:100B000088B0F0CB009401ACE0C478CB04AF78C7D8
:100B1000840A23061B0E0ED003039B0F9B0004AD1B
:100B2000EB58114D5B19E5B28405E40EA5401C6835
:100B3000AC4314431C60420E520710D08200920F47
:100B400092006B469A58084B103BD21803015B0F7A
:100B5000C001C00E8340106898430843106008B07D
:100B6000F0BD0000081B00002002004010B5044644
:100B70000749084B05E00A46491E002A01DC00200F
:100B800010BD1A6920469043F5D1012010BD000028
:100B900080F5200040020040024801680122114314
:100BA0000160704700C0004010B5064C012291035F
:100BB000204600F009F80122D103204600F004F895
:100BC00010BD000040400040F0B5002301273C4626
:100BD0009C400C4208D005685C000326A640B54343
:100BE0001646A640354305605B1C102BEFD3F0BDC5
:100BF000044603A000F094FC204600F019FFFEE735
:100C0000496E2048617264204661756C74204861A9
:100C10006E646C65720A0000074A814203D2411A71
:100C20008908401A06E0814201D8D0697047091A44
:100C300089084018D061704710000020C106C90E15
:100C400001208840014908607047000000E100E091
:100C5000BFF34F8F04490348C860BFF34F8F00BFF5
:100C6000FDE700000400FA0500ED00E0FEB5684C69
:100C70002069FFF739FC61642064654C14342088D6
:100C8000FFF732FC624D2A6C6B6C16460193FFF73E
:100C90004BFB00225F4BFFF7AFFB69622862074600
:100CA00000916088FFF720FC3246019BFFF73CFB78
:100CB0000022584BFFF7A0FBE964A86422886388F0
:100CC000D21A002A02DD2288638801E06288238824
:100CD000D21A94B202460B4638460099FFF716FB2B
:100CE00000221346FFF72CFC04D2EB6CAA6C696A55
:100CF000286A03E06B6A2A6AE96CA86CFFF706FBB6
:100D0000FFF700FC86B2E96CA86CFFF7FBFB87B22B
:100D1000696A286AFFF7F6FB81B2019600943A46A9
:100D20003D482B6900F0FCFBEB6CAA6C696A286AF1
:100D3000FFF706FC01D239A000E03AA000F0F0FB7A
:100D40000A2C64D30022334B696C286CFFF754FBE8
:100D500004460E46EB6CAA6C696A286AFFF7D6FA5D
:100D600022463346FFF748FBE96604460E46A8666E
:100D700022463346E96DA86DFFF724FAE965A865B8
:100D800002910746204631466B6E2A6EFFF7BEFA87
:100D900069652865EB6BAA6BFFF7C6FA01910090B5
:100DA0003A46029B696B286BFFF7BEFA0291074631
:100DB00022463346E96AA86AFFF7B6FA3A46029B2A
:100DC000FFF700FA019B009AFFF7FCF969672867B3
:100DD0000746009115486E662C66006B401CFFF7B5
:100DE00083FB04460D4600220A4B38460099FFF764
:100DF00003FB22462B46FFF797FA00220C4BFFF726
:100E0000FBFAFFF77FFB09494031086135E7FEBD7A
:100E10001000002000FEAF40C41B00002B2B2B0D48
:100E20000A000000202D2D2D0D0A00000080054035
:100E300000005940054800218165C1650165416593
:100E4000016641668166C16670470000100000209F
:100E50008030826D0A43826570470000F8B51D48F6
:100E60006321416141688908890041602F21016344
:100E70001849002040310861012631468140C907E8
:100E80001AD0144980310C6B032742003B46934033
:100E900002259C4395402C430C630C6B1546103582
:100EA000AF40BC430C634C6B9C43334693401C43A4
:100EB0004C634A6BBA434A63401C0628DDDB054C91
:100EC00001212046FFF7C4FF0121204600F004F86D
:100ED000F8BD00000080054070B5002201252B46BA
:100EE00093400B4206D0046A560876002B46B34066
:100EF0001C430462521C062AF1D370BD70B500F089
:100F00007DF80520FFF760FD1120FFF72FFE0A2076
:100F1000FFF75AFD0A20FFF729FE00210720FFF7FF
:100F2000C5FD274C2046FFF737FD032100220906A7
:100F30002046FFF7E3FD234C2046FFF72DFD072158
:100F4000002209032046FFF7D9FD1F4C2046FFF77A
:100F500023FD0122120451012046FFF7CFFD1B4C57
:100F60002046FFF719FD002201212046FFF7C6FDAC
:100F7000A406E06BFF21090488433321490440188B
:100F8000E063A06B1249084012494018A063124D5B
:100F9000002211212846FFF717FE6968112000047E
:100FA00001436960A06B0F21090588430B210905E6
:100FB0004018A06300F040F808490020086070BDA8
:100FC000103D805F0300C05E1CFE4367100000A25E
:100FD000F0FFF0FF01000100404000400001004030
:100FE0000121020E890751188B68012282401343A8
:100FF0008B608868904388607047000010B5592165
:101000000448162288230160026003600468002CF3
:10101000F9D010BD0001004006498A691202FCD4D3
:101020000A2804D10D220A608A691202FCD40860E1
:101030007047000000000740F8B51D4D28691C49A5
:1010400044071CA000680090640F0020403109682C
:1010500005221204114216D1080301D5164800E0FA
:1010600016488A030FD40A04920F6B469B5CCA058C
:101070008904D20DC90E891C8008921C5943504323
:10108000FFF764F880000E4E022CB06002D00D49CC
:10109000A0000858296A0907090F491CFFF756F8EC
:1010A000094930604A108018FFF750F87060F8BDA9
:1010B0000002004001020204001BB7000048E801E2
:1010C00000000020E81A000040420F0010B559212E
:1010D0000A48162388220160036002600468002C1D
:1010E000F9D007490B680722120593430B600B6880
:1010F00013430B600021016010BD0000000100409F
:101100000002004010B50A4C7D220121D200C90620
:10111000204600F047F82068210608432060092097
:10112000FFF78CFD206861060843206010BD0000B9
:101130002000054010B588B00446202215496846B5
:10114000FFF72EF8144B144A14482033944202D16E
:101150004069000A0BE09C4202D14069000B06E0A6
:101160000F4940698C4201D1000C00E0000D41079D
:10117000490F022904D088006946085808B010BDFC
:10118000944201D09C4202D1FFF744FCF6E7FFF7FE
:1011900051FCF3E7401B0000000005400002004046
:1011A00000100540F7B517460646FFF7C3FF054692
:1011B00000244008B84201D8022008E039462846F9
:1011C000FEF7C4FF040E02D0611CFEF7BFFF0199B9
:1011D000214331607060641C604301462846FEF77D
:1011E000B5FFFEBD70B512498868C007C00F1ED09C
:1011F00001258D6000F070FC0E4CE0687D21C90077
:10120000FEF7A4FF002903D10B48816B694081637D
:10121000E0680A21FEF79AFF002908D1207868408B
:10122000207000D004206080A078FFF7DDFA70BD48
:1012300020000540100000204048004010B50B4C35
:10124000E06911210902084202D104E000F040F9EE
:10125000A1694904FAD5A16920467122114203D03F
:101260000921890200F07AF810BD00000000074053
:1012700010B51748FFF7B4FE164CE121490220468D
:1012800000F08CF81121204600F084F80C20FFF7C4
:10129000D5FCFFF7A1FB01460FA000F041F9FFF7D5
:1012A000A3FB014613A000F03BF9FFF7A7FB0146A3
:1012B00016A000F035F9FFF7ADFB014619A000F0CC
:1012C0002FF9FFF7B7FB01461DA000F029F910BD6B
:1012D00010000004000007400D0A434C4B5F4765B7
:1012E0007443505546726571203A202538640D0AC2
:1012F00000000000434C4B5F4765744858544672E9
:101300006571203A202538640D0A0000434C4B5F7C
:101310004765744C585446726571203A20253864EC
:101320000D0A0000434C4B5F47657450434C4B30F3
:1013300046726571203A202538640D0A00000000CD
:10134000434C4B5F47657450434C4B31467265715B
:10135000203A202538640D0A00000000CA0102D599
:1013600001221204C2614A0503D57022826108225B
:1013700082610A0503D5426901231A4342618A0446
:1013800001D5034A8261490401D51F214164704798
:101390000100000142680A4342607047F0B587B01F
:1013A0000F46044600252E4618223E496846FEF7A1
:1013B000F7FE3D493D483E4A8C4204D14369006AEC
:1013C0005B015D0F1FE03B4B9C4204D14369006A07
:1013D0005B005D0F22E0944204D1C369006B5B01A6
:1013E0005D0F11E0344B9C4206D1C369006B5B007A
:1013F0005D0F0006060F13E0304B9C4207D1C36916
:10140000006B5B035D0F000A0607360F08E02C4BEC
:101410009C4205D1C369006B5B025D0F0004060F9F
:10142000002020630320E060A068264B1840A060E5
:10143000012D02D0042D04D013E0FFF70BFB019027
:101440000FE08C4207D0944205D01C48844202D061
:101450001D48844202D1FFF7DDFA01E0FFF7EAFA06
:101460000490002F1BD0A90068464058711CFEF75D
:101470006DFE0546790840183946FEF767FE1349A8
:10148000801E884207D9F90068183946FEF75EFECB
:101490000009801E02E0032109070843606207B0CB
:1014A000F0BD0000601B000000000740000200408B
:1014B0000020074000100740003007400040074070
:1014C000005007400FFFF0FF00600740FFFF0000E3
:1014D00010B50D480068C0B2782813D0582811D034
:1014E0007F2803D909A000F01BF810BD5A2809D0A5
:1014F00004DC3128F9D05828F7D103E0782801D04E
:101500007A28F2D1FFF7A4FB00000740696E7661EC
:101510006C696420636F6D6D616E640D0A0000007C
:101520000FB410B503A9044B044A029800F02EF83A
:1015300010BC08BC04B01847011A00000C000020C1
:101540002021020C01D010211046020A01D01046C1
:101550000839020901D01046091F820801D010463F
:10156000891E420801D0881E7047081A704702E0A1
:1015700008C8121F08C1002AFAD17047704700201E
:1015800001E001C1121F002AFBD17047FFB591B0E5
:101590000F460546002606E025280AD0149A13991E
:1015A00090476D1C761C28780028F5D1304615B080
:1015B000F0BD002400940121F34A029400E00443AA
:1015C0006D1C2B780846203B98401042F7D12878B4
:1015D0002A280ED0022128780246303A092A15D846
:1015E000009A0A235A43303A80180C436D1C00902D
:1015F000F1E701CF0090002805DA01204003044301
:10160000009840420090022004436D1C28782E2848
:1016100015D10420044368786D1C2A280AD101CF13
:101620006D1C02900BE002990A2251433039401898
:101630006D1C02902878014630390929F3D92878A1
:101640006C2810D006DC4C281AD068280ED06A28E6
:1016500017D104E0742813D07A2812D110E00120A9
:10166000400504430CE00121090501E003210905BF
:101670000C436978814203D10120000524186D1CB8
:101680006D1C287803906E281ED00CDC632831D0A6
:1016900004DC00288AD0582811D1B2E064287BD01D
:1016A00069280CD178E073282DD004DC6F2870D025
:1016B000702804D1A7E075286CD078286BD0149AD4
:1016C00013999047761C62E06002400F022807D011
:1016D00003280AD0042838680AD006603F1D56E067
:1016E0003868F11706604160F8E738680680F5E76A
:1016F0000670F3E73878694608740020487404A837
:101700000390012003E0386803900020C0433F1D90
:1017100061070FD5002101E00199491C029A01914E
:10172000914213DA8142F7DB019A0399895C00291F
:10173000F2D10BE0002101E00199491C01918142A5
:10174000FADB019A0399895C0029F5D10199009887
:10175000139A401A00902146149B00F03BF901991E
:101760008019461807E0039803990078491C0391F3
:10177000149A139990470198401E0190401CF2D191
:101780002146149B139A009800F014F986196D1CD9
:1017900009E741E033E034E00A200021049005919C
:1017A0006002410F022905D001CFC21794460329D8
:1017B00005D007E0FF1DFF08FF0003CF06E000B2E1
:1017C000C2179446042902D140B2C1178C460022A8
:1017D0006146944506DA0A460021404291418C4612
:1017E0002D2102E0210504D52B216A461176012125
:1017F00003E0E10701D02021F7E7019154E00A203E
:101800000BE0102009E01020049000210420044384
:1018100008200591029003E0082000210591049022
:101820006002410F022905D001CF0022944603290E
:1018300006D006E0FF1DFF08FF0003CF8C4603E043
:1018400080B2042900D1C0B20021019121072BD51B
:101850000399702906D0049A1021059B4A401A4327
:1018600005D00EE040216A461176012108E061466C
:10187000014306D030216A46117603995176022140
:101880000191049A0821059B4A401A430CD16146F4
:10189000014301D1610707D530216A461176012144
:1018A00001910299491E02910399582904D037A148
:1018B00003910FA90F910DE039A1F9E76146059B4E
:1018C000049AFEF751FE039B8C469B5C0F9A521EB6
:1018D0000F92137061460143F0D10F9807A9081ABF
:1018E00020300390600704D501200004844302984F
:1018F00001E0012002900399884201DD401A00E0D6
:10190000002041180290019809180098401A009090
:10191000E00306D42146149B139A009800F05AF86D
:1019200086190020049008E006A9085C149A13990F
:1019300090470498401C761C049001998842F3DB80
:10194000E0030CD52146149B139A009800F042F84E
:10195000861904E0149A302013999047761C029956
:10196000481E02900029F5DC08E00F980F990078D6
:10197000491C0F91149A13999047761C0399481E9D
:1019800003900029F1DCFBE60928010030313233F5
:1019900034353637383961626364656600000000AB
:1019A0003031323334353637383941424344454695
:1019B00000000000F8B5044600251E4617468804BE
:1019C00004D405E039462020B0476D1C641EF9D5CB
:1019D0002846F8BDFFB50446002581B01E46C80361
:1019E00001D5302700E02027880404D505E03846DB
:1019F0000399B0476D1C641EF9D5284605B0F0BDAB
:101A000010B50446FFF708FB204610BDFFF776FA35
:101A1000FFF72EFCFFF7C8F8FFF70CFAFFF71EFAE6
:101A2000FEF738FFFFF76EFBFFF720F9FCE7000039
:101A300010B50446016810A0FFF772FD11A061689F
:101A4000FFF76EFD12A0A168FFF76AFD13A0E16821
:101A5000FFF766FD14A02169FFF762FD15A061691B
:101A6000FFF75EFD16A0A169FFF75AFD17A0E16917
:101A7000FFF756FD10BD0000723020203D20307869
:101A800025780A00723120203D20307825780A0020
:101A9000723220203D20307825780A0072332020D1
:101AA0003D20307825780A00723132203D20307890
:101AB00025780A006C7220203D20307825780A00B5
:101AC000706320203D20307825780A0070737220E2
:101AD0003D20307825780A000248C168491CC16061
:101AE00070470000100000200048E801008000005E
:101AF00000D8B80500960000006CDC020000000071
:101B000000000000006CDC02000000000400000087
:101B1000080000000C0000000000000000000000B1
:101B200000000000100000000000000004000000A1
:101B30000800000000000000040000000800000091
:101B40000048E801008000000000000000000000E4
:101B5000000000000096000000000000006CDC02A5
:101B60000048E8010000000000800000006CDC027A
:101B700000000000009600000048E801000000009E
:101B800000800000006CDC020000000000960000F5
:101B90000048E8010000000000800000006CDC024A
:101BA0000000000000960000636F6D706172655F59
:101BB000627566666572004144435F5265616441C7
:101BC00056646400746172676574203D2025346436
:101BD0006D7620202C206170706F72616368203DEB
:101BE000202534646D7620202C2072656620203DEF
:101BF000202534646D76202C20414253203A202544
:101C00003364202F20253364200000002C1C0000AA
:101C100000000020880000006E150000B41C0000C9
:101C200088000020000200007E15000000D8B805E2
:101C30006000000000D8B8050000000000000000AF
:101C40000000000000000000000000000000000094
:101C50000000000000000000000000000000000084
:101C60000000F83F000000000000F03F000000000E
:101C70000000D03F7B14AE47E17A843F00000000B3
:101C80000000000000000000000000000000000054
:101C90000000000000000000000000000000000044
:101CA0000000000000000000000000000000000034
:041CB0000000000030
:04000005000000F106
:00000001FF
